:100000000C945D000C9485000C9485000C94850084
:100010000C9485000C9485000C9485000C9485004C
:100020000C9485000C9485000C9485000C9431038D
:100030000C9485000C9485000C9485000C9485002C
:100040000C94E7020C9485000C94B5020C948F027A
:100050000C9485000C9485000C9485000C9485000C
:100060000C9485000C94850000000008000201003B
:100070000003040700000000000000000000000072
:10008000250028002B0000000000240027002A0083
:10009000040404040404040402020202020203032E
:1000A0000303030301020408102040800102040836
:1000B0001020010204081020F20311241FBECFEF0C
:1000C000D8E0DEBFCDBF11E0A0E0B1E0E4E8FDE0A4
:1000D00002C005900D92A631B107D9F721E0A6E143
:1000E000B1E001C01D92A83EB207E1F710E0CDE5F6
:1000F000D0E004C02197FE010E94B506CC35D1079F
:10010000C9F70E9450040C94C0060C940000CF92D2
:10011000DF92EF92FF92DC01A03282E0B8070CF090
:100120003EC0B7FD06C0A53BB1052CF0A4EBB0E086
:1001300002C0A0E0B0E08091E60128E830E069016B
:10014000C81AD10887FDD394CC0CDD1CCC0CDD1C67
:100150000D2C000CEE08FF088091E70128E532E045
:10016000281B310987FD3395220F331F220F331FC0
:10017000A901330F660B770B9A01AB012C193D09CE
:100180004E095F090E94700624EB30E040E050E029
:100190000E944606C20ED31EE41EF51ED6019091A3
:1001A000E5019C3098F58091E60148E850E0481B55
:1001B000510987FD5395440F551F440F551FA41730
:1001C000B5078CF08091E70128E532E0281B310962
:1001D00087FD3395220F331F220F331FAD012A17DE
:1001E0003B070CF4A90142505109440F551F2FB78A
:1001F000F894892F90E0FC01EE0FFF1F8E0F9F1FD8
:10020000FC01E054FE4F528341832FBFFF90EF90DB
:10021000DF90CF900895CF92DF92EF92FF920F93ED
:100220001F93CF93DF936C017A018B01C0E0D0E084
:10023000CE15DF0581F0D8016D918D01D601ED91CC
:10024000FC910190F081E02DC6010995892B11F0F8
:100250002196EECF7E01C701DF91CF911F910F91C3
:10026000FF90EF90DF90CF900895089580E090E0A8
:100270000895FC01538D448D252F30E0842F90E0AC
:10028000821B930B541710F0CF9608950197089591
:10029000FC01918D828D981761F0828DDF01A80F8E
:1002A000B11D5D968C91928D9F5F9F73928F90E0B0
:1002B00008958FEF9FEF0895FC01918D828D98171F
:1002C00031F0828DE80FF11D858D90E008958FEF5C
:1002D0009FEF0895FC01918D228D892F90E0805C25
:1002E0009F4F821B91098F739927089583E291E0B4
:1002F0000E946A0121E0892B09F420E0822F0895F1
:10030000FC01848DDF01A80FB11DA35ABF4F2C91B2
:10031000848D90E001968F739927848FA689B78981
:100320002C93A089B1898C91837080648C93938D78
:10033000848D981306C00288F389E02D80818F7D1B
:1003400080830895EF92FF920F931F93CF93DF93D3
:10035000EC0181E0888F9B8D8C8D981305C0E88916
:10036000F989808185FD26C0F62E0B8D10E00F5F88
:100370001F4F0F731127E02E8C8DE8120CC00FB6A3
:1003800007FCFACFE889F989808185FFF5CFCE0196
:100390000E948001F1CF8B8DFE01E80FF11DE35A21
:1003A000FF4FF0829FB7F8940B8FEA89FB89808119
:1003B00080620AC09FB7F894EE89FF896083E8895C
:1003C000F98980818370806480839FBF81E090E0A1
:1003D000DF91CF911F910F91FF90EF900895CF93F0
:1003E000DF93EC01888D8823C9F0EA89FB8980813D
:1003F00085FD05C0A889B9898C9186FD0FC00FB60F
:1004000007FCF5CF808185FFF2CFA889B9898C914F
:1004100085FFEDCFCE010E948001E7CFDF91CF9124
:10042000089580E090E0892B29F00E9476018111E7
:100430000C940000089590E0FC01E859FF4F2491CE
:10044000FC01EC55FF4F3491FC01E057FF4FE49164
:10045000EE2309F43CC0222339F1233091F038F423
:100460002130A9F0223001F584B58F7D12C02730EC
:1004700091F02830A1F02430B9F4809180008F7D74
:1004800003C0809180008F77809380000DC084B579
:100490008F7784BD09C08091B0008F7703C08091B1
:1004A000B0008F7D8093B000F0E0EE0FFF1FE458A6
:1004B000FF4FA591B4919FB7F894611104C08C913E
:1004C0003095382302C0EC913E2B3C939FBF08959A
:1004D0003FB7F89480911C0190911D01A0911E01DD
:1004E000B0911F0126B5A89B05C02F3F19F00196BA
:1004F000A11DB11D3FBFBA2FA92F982F8827820FAA
:10050000911DA11DB11DBC01CD0142E0660F771FF9
:10051000881F991F4A95D1F708950E94BB061F9224
:100520000F920FB60F9211242F933F934F935F9327
:100530006F937F938F939F93AF93BF93EF93FF93AB
:1005400083E291E00E948001FF91EF91BF91AF9112
:100550009F918F917F916F915F914F913F912F91DB
:100560000F900FBE0F901F9018951F920F920FB60D
:100570000F9211242F938F939F93EF93FF93E0910A
:100580003301F09134018081E0913901F0913A0119
:1005900082FD12C0908180913C018F5F8F7320910A
:1005A0003D01821751F0E0913C01F0E0ED5DFE4F1E
:1005B000958F80933C0101C08081FF91EF919F91C5
:1005C0008F912F910F900FBE0F901F9018951F9233
:1005D0000F920FB60F9211242F933F938F939F93F7
:1005E000AF93BF938091180190911901A0911A01C6
:1005F000B0911B013091170123E0230F2D3720F418
:100600000196A11DB11D05C026E8230F0296A11D6C
:10061000B11D209317018093180190931901A093A5
:100620001A01B0931B0180911C0190911D01A091B2
:100630001E01B0911F010196A11DB11D80931C01E7
:1006400090931D01A0931E01B0931F01BF91AF9124
:100650009F918F913F912F910F900FBE0F901F9000
:1006600018951F920F920FB60F9211242F933F935C
:100670004F935F936F937F938F939F93AF93BF93AA
:10068000EF93FF938091160187FF05C010928500BC
:10069000109284001BC020911601022E000C330B17
:1006A0008091E40190E02817390784F480911601C5
:1006B000082E000C990BFC01EE0FFF1F8E0F9F1FE1
:1006C000FC01E054FE4F808186FD15C0809116012B
:1006D0008F5F8093160120911601022E000C330BC0
:1006E0008091E40190E028173907C4F48091160145
:1006F0008C3064F113C080911601082E000C990B08
:10070000FC01EE0FFF1F8E0F9F1FFC01E054FE4FF8
:10071000808160E08F730E941B02D8CF809184009B
:1007200090918500049680349C4918F480E49CE9FB
:1007300005C0809184009091850004969093890073
:10074000809388008FEF809316013BC02091840036
:100750003091850080911601082E000C990BFC0148
:10076000EE0FFF1F8E0F9F1FFC01E054FE4F818193
:100770009281820F931F90938900809388008091CB
:100780001601082E000C990BFC01EE0FFF1F8E0FB7
:100790009F1FFC01E054FE4F808186FF12C08091B4
:1007A0001601082E000C990BFC01EE0FFF1F8E0F97
:1007B0009F1FFC01E054FE4F808161E08F730E9417
:1007C0001B02FF91EF91BF91AF919F918F917F910C
:1007D0006F915F914F913F912F910F900FBE0F90AE
:1007E0001F901895109226011092250188EE93E033
:1007F000A0E0B0E08093270190932801A093290105
:10080000B0932A0188E091E0909324018093230122
:1008100085EC90E09093300180932F0184EC90E080
:10082000909332018093310180EC90E090933401F9
:100830008093330181EC90E09093360180933501F1
:1008400082EC90E0909338018093370186EC90E041
:1008500090933A018093390110923C0110923D012E
:1008600010923E0110923F018091E4018C30A0F47F
:1008700091E0980F9093E4018093E50190E0FC01F2
:10088000EE0FFF1F8E0F9F1FFC01E054FE4F88EB01
:100890009BE09283818308958FEF8093E501089513
:1008A000789484B5826084BD84B5816084BD85B54B
:1008B000826085BD85B5816085BD80916E00816057
:1008C00080936E00109281008091810082608093FD
:1008D00081008091810081608093810080918000FF
:1008E0008160809380008091B10084608093B1002A
:1008F0008091B00081608093B00080917A00846024
:1009000080937A0080917A00826080937A0080914F
:100910007A00816080937A0080917A008068809369
:100920007A001092C1008091E5018C3008F068C017
:10093000E7EAF0E02491E3E9F0E08491882399F07C
:1009400090E0880F991FFC01EA57FF4FA591B491E1
:10095000FC01E458FF4F859194918FB7F894EC9186
:10096000E22BEC938FBF8091E501E82FF0E09F012F
:10097000220F331FE20FF31FE054FE4F9081907C53
:10098000936090831092E6011092E7016CE00E9460
:10099000A9062CE0829FB001112440E050E09B01A9
:1009A000240F351FF901EE0FFF1F2E0F3F1FF90116
:1009B000E054FE4F908196FD16C04F5F5F4F4C3064
:1009C000510569F781110FC01092800082E0809379
:1009D00081001092850010928400B19A80916F007E
:1009E000826080936F00E091E501F0E0CF01880F15
:1009F000991FE80FF91FE054FE4F808180648083C7
:100A0000E0913301F091340182E08083E0912F0185
:100A1000F09130011082E0913101F09132018FECC0
:100A2000808310923B01E0913701F091380186E01C
:100A30008083E0913501F09136018081806180836F
:100A4000E0913501F0913601808188608083E091EA
:100A50003501F0913601808180688083E091350115
:100A6000F091360180818F7D808381E090E00E944B
:100A700087000E94EF05062F6093220183E291E038
:100A80000E946A01892B09F45CC00E9468026B0114
:100A90007C0182E3882E912CA12CB12C0E9468024B
:100AA000DC01CB018C199D09AE09BF09883E93403A
:100AB000A105B10598F381E0881A9108A108B10851
:100AC00098EEC90E93E0D91EE11CF11C811491042B
:100AD000A104B10419F710E083E291E00E946A01D9
:100AE0001816190674F583E291E00E944801EC01A2
:100AF00090932101809320018133910519F481E0C5
:100B000090E005C08233910529F48DE290E00E94C7
:100B1000870011C08333910519F48AE590E00EC077
:100B20008433910519F487E890E008C0C59719F45B
:100B300084EB90E003C0E69779F6C8010E94870035
:100B4000CBCF0E94110295CF8F929F92AF92BF920E
:100B5000CF92DF92EF92FF92CF93DF93EC01688107
:100B600079818A819B81611571058105910521F447
:100B700064E279ED8BE597E02DE133EF41E050E061
:100B80000E94460649015A019B01AC01A7EAB1E463
:100B90000E9465066B017C01ACEEB4EFA5019401E7
:100BA0000E947306DC01CB018C0D9D1DAE1DBF1D87
:100BB000B7FF03C00197A109B04888839983AA832E
:100BC000BB83BC01CD019F77DF91CF91FF90EF9068
:100BD000DF90CF90BF90AF909F908F9008958F92AD
:100BE0009F92AF92BF92CF92DF92EF92FF9260916D
:100BF0000001709101018091020190910301611542
:100C000071058105910521F464E279ED8BE597E0AA
:100C10002DE133EF41E050E00E94460649015A01C0
:100C20009B01AC01A7EAB1E40E9465066B017C015F
:100C3000ACEEB4EFA50194010E947306DC01CB0178
:100C40008C0D9D1DAE1DBF1DB7FF03C00197A109EF
:100C5000B0488093000190930101A0930201B093EA
:100C60000301BC01CD019F77FF90EF90DF90CF9003
:100C7000BF90AF909F908F90089560930001709304
:100C8000010180930201909303010895052E97FBC3
:100C90001EF400940E945D0657FD07D00E9478065E
:100CA00007FC03D04EF40C945D06509540953095AA
:100CB00021953F4F4F4F5F4F0895909580957095C8
:100CC00061957F4F8F4F9F4F08950E949A06A59F71
:100CD000900DB49F900DA49F800D911D1124089537
:100CE000B7FF0C9465060E946506821B930B08955E
:100CF000A1E21A2EAA1BBB1BFD010DC0AA1FBB1F20
:100D0000EE1FFF1FA217B307E407F50720F0A21B91
:100D1000B30BE40BF50B661F771F881F991F1A94FE
:100D200069F760957095809590959B01AC01BD0128
:100D3000CF010895A29FB001B39FC001A39F700D82
:100D4000811D1124911DB29F700D811D1124911DD3
:100D50000895991B79E004C0991F961708F0961B17
:100D6000881F7A95C9F780950895EE0FFF1F0590AB
:100D7000F491E02D099481E090E0F8940C94C00681
:040D8000F894FFCF15
:100D84000100000000000000A2010B013901EF0185
:060D94006A0148015C0148
:00000001FF
